:020000040800F2
:10000000D8170020DD010008AF2B0008FB220008F4
:10001000AD2B00086D02000811340008000000003C
:100020000000000000000000000000004501000882
:10003000B90400080000000089010008432C0008F2
:10004000F7010008F7010008F7010008F7010008B0
:10005000F7010008F7010008F7010008F7010008A0
:10006000F7010008F7010008F7010008F701000890
:10007000F7010008F7010008F7010008F701000880
:10008000F7010008F7010008F7010008F93300083C
:1000900005340008F7010008F7010008F70100081F
:1000A000F7010008F7010008F7010008F701000850
:1000B000012D0008F7010008F701000809230008D6
:1000C000FD220008F7010008F7010008F701000809
:1000D000F7010008B5300008C1300008CD30000835
:1000E000F7010008F7010008F7010008F701000810
:1000F000F7010008F7010008F7010008F701000800
:10010000F7010008F7010008F7010008F7010008EF
:10011000052E0008112E0008F7010008F70100085D
:10012000F7010008F7010008F7010008F7010008CF
:10013000DFF80CD000F088F8004800473934000898
:10014000D8170020224B19680868B0E8F00F80F338
:100150000988BFF36F8F4FF0000080F311884EF0D5
:100160000D0E70470000000006480068006880F32C
:10017000088862B661B6BFF34F8FBFF36F8F00DFA1
:1001800000BF00BF08ED00E0EFF30980BFF36F8F01
:100190000F4B1A6820E9F00F106008B54FF05000BF
:1001A00080F31188BFF34F8FBFF36F8F03F08EFF83
:1001B0004FF0000080F31188BDE808401968086816
:1001C000B0E8F00F80F30988BFF36F8F704700BF6E
:1001D00018000020EFF305807047000006488047B4
:1001E00006480047FEE7FEE7FEE7FEE7FEE7FEE71C
:1001F000FEE7FEE7FEE7FEE7B92C00083101000844
:1002000040EA01039B0703D009E008C9121F08C098
:10021000042AFAD203E011F8013B00F8013B521E18
:10022000F9D27047D2B201E000F8012B491EFBD28F
:1002300070470022F6E710B513460A4604461946F1
:10024000FFF7F0FF204610BD064C074D06E0E068C2
:1002500040F0010394E8070098471034AC42F6D30D
:10026000FFF76AFFEC4A00080C4B0008FEE70000AD
:1002700070B5002400F028F8124D04E0641CE4B2CC
:10028000012000F0E1F80121284600F001FD10B145
:10029000642CF3D30FE0642C0DD2002404E0641C22
:1002A000E4B2012000F0D0F80121284600F0F0FC73
:1002B00018B1642C04D3012070BD642CEFD3FAE78D
:1002C000002070BD000C01407FB50024084D009453
:1002D0000194029401212846039400F065FB01205B
:1002E000CDE9000469462846029400F0DDFB7FBD9D
:1002F000000C01407FB50024094D00940194029444
:1003000001212846039400F04FFB022001210390B5
:100310000091CDE901146946284600F0C5FB7FBD78
:10032000000C014010B500F077F8BDE81040FFF771
:100330009FBF1CB5FFF7F6FF00208DF800008DF879
:10034000040001A9684600F03EF80A2003F018F9FD
:10035000F7E7000070B50024134D04E0641CE4B21C
:10036000012000F071F80121284600F091FC08B14D
:10037000642CF3D3002404E0641CE4B2012000F0F8
:1003800063F80121284600F083FC08B9642CF3D3FC
:10039000282000F059F80121284600F079FC0028B7
:1003A00000D0012070BD0000000C014070B500209D
:1003B00004464006050EFFF7CDFF641C2843E4B257
:1003C000082CF6D370BD2DE9FC410D46064600F021
:1003D00023F8FFF74DFF10B10120BDE8FC81002498
:1003E0006F46FFF7E3FF3855641CE4B2052CF8D3E1
:1003F0009DF800109DF801009DF803300A189DF843
:10040000020003441A449DF804309A4201D1297035
:1004100030700020E1E7000010B5FFF76BFF094CDA
:1004200000220121204600F038FC142003F0A8F837
:1004300001221146204600F030FCBDE810401E208D
:1004400000F002B8000C014031B5084D6C6801F0B5
:10045000AFF80749B0FBF1F0009948430090686895
:100460000099001B8842FAD338BD0000001000E05C
:1004700040420F000E48016821F080710160016860
:1004800041F0807101600B48016821F001010160B9
:10049000016841F0010101600021416000BF00BF1F
:1004A00000BF406808B1002070470120704700007D
:1004B000FCED00E0001000E0704770472DE9F05FB0
:1004C0000546006800244669D0F804908768D0F893
:1004D0000CB0D0F810A0D0F81880F10748D0F90778
:1004E00014D001218160B80703D5284600F0BEF979
:1004F0000CE0780702D54FF4006407E0380702D516
:100500004FF4805402E0284600F0AFF9F80516D504
:1005100029684FF480708860B80503D5284600F03C
:10052000A7F90CE0780502D544F4005407E038053B
:1005300002D544F4804402E0284600F098F9F8031C
:1005400016D529684FF480308860B80303D5284653
:1005500000F090F90CE0780302D544F4004407E081
:10056000380302D544F4803402E0284600F081F9D3
:10057000300707D55FEACB6004D52968102044F422
:100580000074C86070074FF0080707D55FEA0B706A
:1005900004D52868C760284600F062F9B00706D580
:1005A0002868C068800702D0284600F05AF9700613
:1005B00007D55FEACA6004D52968102044F4806436
:1005C0000861B00607D55FEA0A7004D5286807619C
:1005D000284600F047F9F00606D52868006980072C
:1005E00002D0284600F03FF9B00308D55FEAC960A1
:1005F00005D5296810204860284600F035F9F00339
:1006000007D55FEA097004D528684760284600F0DE
:1006100032F9300446D55FEA497040D5F00504D57B
:100620005FEAC87001D044F00104B00504D55FEA68
:10063000887001D544F00204700504D55FEA487063
:1006400001D544F00404300529D518F0700F26D0E8
:1006500008F07000402815D006DC102809D02028AA
:100660000AD0302816D10AE050280ED0602811D1C7
:100670000EE044F008040DE044F010040AE044F0F9
:10068000200407E044F0400404E044F0800401E06A
:1006900044F480742868816921F0700181612968BF
:1006A00004204860002C05D0686A20436862284610
:1006B000FFF703FFBDE8F09F70B5040003D094F886
:1006C000200010B104E0012070BD204600F082F847
:1006D0002068016821F00201016000F0E3FA05469C
:1006E000052604E000F0DEFA401B0A2811D8206835
:1006F00040688007F6D42068016841F0010101607C
:1007000000F0D0FA05460BE000F0CCFA401B0A28B6
:1007100006D9606A40F40030606284F82060D2E755
:1007200020684068C007EFD0207E0128206801685B
:100730003DD021F080010160607E012820680168C1
:1007400038D021F040010160A07E012820680168B6
:1007500033D021F020010160E07E0128206801688B
:100760002ED041F010010160207F0128206801682F
:1007700029D021F008010160607F0128206801680C
:1007800024D021F004010160D4E902010843D4E936
:100790000412114308436168491E08432168C86177
:1007A00000206062012084F82000002070BD41F02C
:1007B0008001C0E741F04001C5E741F02001CAE7F0
:1007C00021F01001CFE741F00801D4E741F0040126
:1007D000D9E7000010B586B0002100910191029187
:1007E000039100681B49884232D11B48C16941F01E
:1007F0000071C161C16901F000710491816941F02A
:10080000040181618069154C00F0040004904FF4EC
:10081000006000906946204600F046F9A014009060
:1008200002200190032003906946204600F03CF925
:1008300000220521132000F0EDFC132000F0DEFC67
:1008400000220521142000F0E5FC142000F0D6FC65
:1008500006B010BD006400400010024000080140D6
:1008600070477047704770477047704770477047D0
:1008700070477047704770472DE9F05F90F821107E
:100880000024022903D004218163012485E001684A
:100890000A6822F00E020A6001680A6822F001026A
:1008A0000A603F4E3E4FB215DFF8F4C0DFF8F0901B
:1008B000DFF8ECA0DFF8E8B0DFF8E4E00168783FAB
:1008C00013011502ACF1640CA9F15009AAF13C0A1C
:1008D000ABF1280BAEF1140E4FF48018B14227D9BA
:1008E000B9420ED0614512D049451DD0514518D0AE
:1008F000594518D0714501D1424615E0294EB14203
:1009000001D1012210E0274E1436B14201D110224C
:100910000AE0244E2836B14206D0224A3C329142A7
:1009200001D11A4600E02A461E49091F0A602BE041
:10093000B94213D0614517D0494522D051451DD049
:1009400059451DD0714501D142461AE0B14202D14C
:100950004FF0807215E0134EB14201D1012210E038
:10096000104E1436B14201D110220AE00D4E283645
:10097000B14206D00B4A3C32914201D11A4600E006
:100980002A46074980394A60012180F82110002158
:1009900080F82010416B01B188472046BDE8F09FE8
:1009A00080000240080402402DE9F04300230F2498
:1009B000DFF8D4C063E001229A400A405ED0FF2AEB
:1009C00001D8074601E000F104074FEA830601D988
:1009D000A6F12006D7F8008004FA06F54FF00409C6
:1009E00028EA050809FA06F948EA0908C7F8008064
:1009F000C56825EA0205C56023F003056544AF68B4
:100A00004FEA83764FEA167604FA06F909EA0708F0
:100A10001E4FB84201D1002719E01D4FB84201D145
:100A2000012714E01B4FB84201D102270FE01A4FF3
:100A3000B84201D103270AE0184FB84201D1042778
:100A400005E0174FB84201D1052700E00627B7405F
:100A5000474513D1AF6827EA0907AF60114D2E68EB
:100A600096432E602D1D2E6896432E602D1D2E68F8
:100A700096432E602D1D2E6896432E605B1C31FA26
:100A800003F298D1BDE8F083000001400008014066
:100A9000000C01400010014000140140001801400A
:100AA000001C0140000401402DE9F84FDFF8B8A117
:100AB00000220AF1040B144601274FF00F090BF135
:100AC000040E00BF0B6807FA04F52B40AB4274D14B
:100AD000DFF898C14E68A6EB0C0866452BD00DDCFC
:100AE000032E34D005DC36B3012E19D0022E2FD1BF
:100AF0001BE0112E16D0122E2AD119E0B8F5881F4E
:100B000019D006DCB8F5803F15D0B8F5801F1FD18D
:100B100011E0B8F5001F0ED0B8F5041F18D10AE097
:100B2000CA6815E0CA68121D12E0CA6808320FE0F0
:100B3000CA680C320CE08A682AB1012A4FF0080218
:100B400003D0456104E0042202E0056100E00022D8
:100B5000FF2B01D8064601E000F104064FEA8405A8
:100B600001D9A5F12005D6F800C009FA05F82CEA4C
:100B7000080C02FA05F54CEA050CC6F800C04D68F1
:100B8000ED006AD53A4DAE6946F00106AE61AD6939
:100B900024F0030605F001050095364D06EB050C23
:100BA000DCF80850A6074FEA167809FA08F6B543AC
:100BB000314EB04202D100261AE04EE02F4EB04234
:100BC00001D1012614E02E4EB04201D102260FE0E1
:100BD0002C4EB04201D103260AE02B4EB04201D187
:100BE000042605E0294EB04201D1052600E0062684
:100BF00006FA08F62E43CCF808604D68DAF8006073
:100C0000ED03554601D51E4300E09E432E604D681E
:100C1000AD0305D5DBF800601E43CBF8006004E0AF
:100C2000DBF800509D43CBF800504D68DEF80060C3
:100C3000ED02754601D51E4300E09E432E604D68CF
:100C4000AD0205D5084D0C352E681E432E6004E01C
:100C5000054E0C3635689D433560641C102CFFF43E
:100C600031AFBDE8F88F0000000401400000111012
:100C7000001002400000014000080140000C01404B
:100C8000001001400014014000180140001C014008
:100C90008068084000D0012070470AB101617047A8
:100CA0000904FBE701488068704700000800002045
:100CB0007047704770B5044600684569466830491A
:100CC0000D420DD0F1050BD5216C41F001012164DD
:100CD0006FF4807141612068016841F40041016056
:100CE00015F4813F09D0F00507D5206C40F00200D3
:100CF000206421686FF40070486115F4823F28D0A9
:100D0000F00526D594F83E30628D94F83D00216BB5
:100D1000202B08D13AB921280ED029280CD0282818
:100D200001D1212908D0206C40F00400206494F8FF
:100D30003E00102804D008E0204601F0DFFD08E066
:100D40002068016841F40071016021686FF48060DF
:100D5000486115F4843F09D0F00507D5206C40F0B8
:100D60000800206421686FF400604861206C00284E
:100D700004D02046BDE8704001F0F4BA70BD000018
:100D8000000101002DE9F05F02680446D2F81880E6
:100D90005569566890F83E007449DFF8D0A1DFF835
:100DA000CCB1DFF8CC918F1C0AF17E0A0BF13E0B1F
:100DB000102812D0402810D00D425BD0B00559D574
:100DC000936920460021DB435B0700D5012192692E
:100DD000D243120648D5828947E015F0011F05D09D
:100DE000B00503D5204601F05CFD10E05F48801D92
:100DF000054205D0B00503D5606CC0B2106106E0B5
:100E00000D4204D0B00502D5204601F0BDFC18EA21
:100E1000090F14D015EA0A0F08D0700506D53D4217
:100E200006D12046BDE8F05F01F02ABC3D421FD04C
:100E3000B0051DD52046BDE8F05F01F0E0BB15EA26
:100E40000B0F08D0700506D53D4206D12046BDE8FF
:100E5000F05F01F07DBB3D420AD0B00508D52046C9
:100E6000BDE8F05F01F010BB028B92B2FFF721FFEB
:100E7000BDE8F09F3D480E30054206D0B00504D5D0
:100E80002046BDE8F05F01F07BBD18EA090F4FF086
:100E9000280134D015EA0A0F23D0700521D53D4230
:100EA00021D194F83D302046628D002AE0D0426A7C
:100EB000541C4462046812782261428D521E42859D
:100EC000428D002AD4D1292BD2D10268536823F451
:100ED000806353602122026380F83D1000F031F9F5
:100EE000C6E73D42C4D0B005C2D5608D0028BFD052
:100EF000606A411C616221680078086131E015EA8E
:100F00000B0F22D0700520D53D4220D194F83D3002
:100F10002046648D002CABD01469426A551C456292
:100F20001470428D521E4285428D002AA0D12A2B78
:100F30009ED10268536823F48063536022220263C7
:100F400080F83D1000F0FCF892E73D4290D0B005EB
:100F50008ED5608D00288BD01169606A421C626258
:100F60000170608D401E608582E700000200010074
:100F7000040010007047000070B504001BD094F806
:100F80003D00002520B984F83C50204600F09AF836
:100F9000242084F83D002068016821F001010160EF
:100FA00000F00CFB404A6168914201D83F4900E0E3
:100FB0003F49884201D2012070BD3E492368B0FB01
:100FC000F1F159606368934206D94FF4967359431F
:100FD0004FF47A73B1FBF3F12368491C196261681D
:100FE000914210D84900401EB0FBF1F2521CC2F3EE
:100FF0000B02042A01D2042022E0B0FBF1F0401CD5
:10100000C0F30B001CE0A368CBB301EBC10202EB01
:101010000116421EB2FBF6F2521C42F48042120547
:1010200036D06BB301EBC10202EB0111401EB0FBE5
:10103000F1F0401CC0F30B0040F4804040F400404D
:101040002168C861D4E90701084321680860D4E930
:101050000310084321688860D4E90501084321682A
:10106000C8602068016841F001010160256420200A
:1010700084F83D00256384F83E50002070BD00E0F8
:1010800008E001EB4106421EB2FBF6F2521CC6E735
:101090000120D5E701EB4101401EB0FBF1F0401CFF
:1010A000C0F30B00CAE70000A086010080841E0088
:1010B00000093D0040420F0070477047704770477D
:1010C0007047000010B586B0002100910191029197
:1010D00003910068174988422AD1174CA06940F053
:1010E0000800A061A069694600F008000490C020D3
:1010F000009012200190032003901048FFF7D4FCC9
:10110000E06940F40010E061E069002200F40010A2
:10111000049005211F2000F07DF81F2000F06EF8DC
:1011200000220521202000F075F8202000F066F84C
:1011300006B010BD0054004000100240000C0140F9
:101140007047704702488168027811448160704797
:1011500008000020074810B5016841F01001016047
:10116000032000F077F80F2000F006F800F024F8D4
:10117000002010BD0020024070B50D4D04464FF414
:101180007A712878B1FBF0F00A490968B1FBF0F0F8
:1011900000F073FC48B9102C07D200222146501EE3
:1011A00000F038F800206C6070BD012070BD0000B8
:1011B00008000020140000200E4808B5816941F0A5
:1011C00001018161816901F001010091C16941F072
:1011D0008051C161C069002200F0805000900F2151
:1011E000901E00F017F80448416821F0E06141606A
:1011F00008BD0000001002400000014000F01F0286
:10120000012191404009800000F1E020C0F8001168
:1012100070470000F0B40E4B1B680C46C3F302236A
:10122000C3F10705042D00D90425191D072901D292
:10123000002300E0DB1E012606FA05F1491E2140CD
:1012400099409E40761E16403143F0BC01F0B0BC80
:101250000CED00E0064900F0070208684FF6FF03B6
:10126000184040EA0220034A10430860704700001B
:101270000CED00E00000FA0501490120086270470A
:1012800000000E4210B52CA401461DCC86B08DE89E
:101290001D002DA02D4C00680490002004292FD0A3
:1012A0000BDC01292FD0022928D100F097F96168C1
:1012B000C1F38131491C49001EE0082920D01029C2
:1012C0001CD161682268D20118D5C1F38342C903D9
:1012D0001DF8020009D5616804AAC1F34041515CC0
:1012E0001B4AB2FBF1F1484301E01A4948436168E7
:1012F000490203D440000321B0FBF1F006B010BD59
:1013000000F07CF9FAE7226AC2F30121012903D136
:10131000920701D5C803F1E7022905D1626A920755
:1013200002D549F64040E9E70329E7D1216889035E
:10133000E4D54FF22440E1E702030405060708095B
:101340000A0B0C0D0E0F10100102000000100240DD
:1013500000127A0000093D002DE9F84305460078A7
:10136000354CC00754D0E0690026C00008D4E069BD
:1013700040F08050E061E069012600F0805000906C
:101380002E480168C90512D40168804641F4807175
:101390000160FFF787FC074605E000BFFFF782FC0E
:1013A000C01B642823D8D8F80000C005F6D5206AF1
:1013B00010F4407021D0A98801F4407181421CD002
:1013C000206A1F49012220F440700A6000220A604E
:1013D0002062C00711D0FFF765FC074641F288384C
:1013E00008E000BFFFF75EFCC11B414502D90320A6
:1013F000BDE8F883206A8007F4D5206A696820F484
:101400004070084320621EB1E06920F08050E06126
:101410002878800705D56068A96820F44040084313
:1014200060602878C00605D56068696920F480008E
:10143000084360600020DBE70010024000700040BD
:10144000400442422DE9F047DFF8548105460E463C
:10145000D8F8000000F00700B0420CD2D8F8001015
:1014600021F007013143C8F80010D8F8000000F05F
:101470000700B0426FD128684A4C810712D5400757
:1014800003D5606840F4E06060602878000703D509
:10149000606840F4605060606068A96820F0F00007
:1014A000084360602878C00744D06868012816D0D7
:1014B0002168022816D0890700294CDA616821F0DA
:1014C000030101436160FFF7EDFB6968074641F2E4
:1014D000883001290ED00229814618D026E02168E3
:1014E0008903E9E78901E7E7FFF7DCFBC11B494511
:1014F00001D918E081466068C0F381000128F3D16A
:1015000018E000BFFFF7CEFBC11B49450BD8606850
:10151000C0F381000228F5D10CE000BFFFF7C2FB49
:10152000C11B494502D90320BDE8F087606810F06F
:101530000C0FF3D1D8F80010404601F00701B1427A
:101540000BD9016821F0070131430160006800F008
:101550000700B04201D00120E6E72878400705D512
:101560006068E96820F4E06008436060287800075C
:1015700006D56068296920F4605040EAC1006060C7
:1015800000F03CF86168084AC1F30311515CC8409F
:10159000064908600F20FFF7EFFD0020C4E70000B8
:1015A0000020024000100240BC4A00081400002045
:1015B00001480068704700001400002004480549F5
:1015C00000684968044AC1F30221515CC840704771
:1015D0001400002000100240CC4A000804480549CD
:1015E00000684968044AC1F3C221515CC840704791
:1015F0001400002000100240CC4A000812A185B05F
:101600000FC98DE80F0014A0144A006804905168B7
:10161000134801F00C03042B10D0082B0ED1C1F39A
:101620008343C9031DF803000AD5516804AAC1F316
:101630004041515C0A4A5043B0FBF1F005B070479D
:1016400008494843FAE700000203040506070809B1
:101650000A0B0C0D0E0F10100102000000100240CA
:1016600000127A0000093D002DE9F84F0446007889
:10167000B94DC00748D06868C0F38100012807D081
:101680006868C0F38100022809D16868C00306D5E4
:101690002868800338D5606800286FD034E060681F
:1016A000B0F5803F0BD010B1B0F5A02F11D0286855
:1016B00020F480302860286820F4802002E0286828
:1016C00040F480302860606888B1FFF7EBFA064686
:1016D00009E0286840F480202860F0E7FFF7E2FA8C
:1016E000801B642875D828688003F7D50CE0FFF7C5
:1016F000D9FA064605E000BFFFF7D4FA801B64283C
:10170000F0D828688003F7D42078944E80074FF0F3
:1017100001094FF000083BD5686810F00C0F07D0A6
:101720006868C0F38100022809D16868C00306D444
:101730002868800714D5206901281FD110E020698E
:10174000B0B1C6F80090FFF7ADFA074605E000BF5C
:10175000FFF7A8FAC01B0228C4D828688007F7D56D
:101760002868616920F0F80040EAC10028600FE0B5
:10177000C6F80080FFF796FA074606E0E9E000BFEA
:10178000FFF790FAC01B022823D828688007F7D4F7
:10179000207800072CD57248A169D9B1C0F8009013
:1017A000FFF780FA074604E0FFF77CFAC01B022827
:1017B0000FD8686A8007F7D56A484FF4FA51006875
:1017C000B0FBF1F0009000BF0098411E0091FAD2EA
:1017D0000EE080E0C0F80080FFF764FA074604E0FE
:1017E000FFF760FAC01B022875D8686A8007F7D433
:1017F0002078400760D5E8690027C00008D4E86970
:1018000040F08050E861E869012700F080500090C6
:1018100055480168C90513D40168834641F48071B5
:101820000160FFF73FFA824606E000BFFFF73AFA91
:10183000A0EB0A0064284ED8DBF80000C005F5D5FF
:10184000E06801280AD008B1052813D0286A20F0E2
:1018500001002862286A20F0040002E0286A40F0B3
:1018600001002862E06841F2883B98B1FFF71AFA5C
:1018700082460BE0286A40F004002862EEE700BFD1
:10188000FFF710FAA0EB0A0159455AD8286A8007D9
:10189000F6D50CE0FFF706FA824605E0FFF702FAFC
:1018A000A0EB0A0159454CD8286A8007F6D41FB12D
:1018B000E86920F08050E861E06988B36968C1F3A5
:1018C0008101022945D00228C6F8608004D0FFF7C4
:1018D000E9F9044638E034E0FFF7E4F9074604E0AC
:1018E000FFF7E0F9C01B02282BD828688001F7D445
:1018F000206AB0F5803F05D16868A16820F4003007
:1019000008436860D4E908010843696821F4741148
:1019100008436860C6F86090FFF7C4F9044606E023
:1019200015E000BFFFF7BEF9001B022809D82868A0
:101930008001F7D50BE000BFFFF7B4F9001B0228C8
:1019400002D90320BDE8F88F28688001F4D4002074
:10195000F8E70120F6E700000010024000004242D4
:1019600080044242140000200070004070B5040062
:1019700003D0607C002610B105E0012070BD267404
:10198000204600F043F802206074204600F058F82A
:10199000042578BB204601F01BF958BB206841683C
:1019A00021F007014160A06820B11748016821F0CB
:1019B000010101601448001F0168A26821F46071F0
:1019C000114301606068411C04D10120FFF75AFCFB
:1019D00080B1401E21688A6822F00F0242EA10425C
:1019E0008A602168CA6860F30F02CA60204601F06D
:1019F00009F908B16574C0E7E67301206073A0734C
:101A00006074002070BD0000306C004008B50068B4
:101A1000084988420DD1FFF72FFC0748C16941F002
:101A20000061C161C069054900F0006000900120BB
:101A3000086008BD00280040001002403C044242FB
:101A400070B504000AD02068416821F008014160A7
:101A5000FFF728F905464FF47A7608E0012070BDBB
:101A6000FFF720F9401BB04201D9032070BD206868
:101A700040680007F4D5002070BD10B5401EB0F1DD
:101A8000807F01D3012010BD4FF0E02460610F2161
:101A9000601701F08DF80020A06107202061002070
:101AA00010BD7047704730B590F83C20012A20D017
:101AB000012280F83C20022380F83D3003685C68F6
:101AC00024F070045C6003685C680D682C435C6003
:101AD00003689C6824F080049C6003689C684968E3
:101AE0000C439C6080F83D20002180F83C100846A3
:101AF00030BD022030BD10B5040003D094F83D0085
:101B000010B107E0012010BD002084F83C00204601
:101B100000F00CF8022084F83D00211D206801F03F
:101B2000F5F8012084F83D00002010BD08B50068DC
:101B3000B0F1804F12D10A48C16941F00101C16181
:101B4000C069002200F00100009005211C20FFF771
:101B500061FBBDE808401C20FFF750BB08BD00003A
:101B60000010024070B5044690F83C00012817D0E0
:101B7000012584F83C50022084F83D0020688268EA
:101B800022F0770222F47F4282600868502837D022
:101B90000DDC202859D005DC88B3102841D151E054
:101BA000022070BD302853D040283AD13FE0602851
:101BB0002ED070280BD0B0F5805F03D0B0F5005F59
:101BC0002FD110E02068816821F0070115E0CB6873
:101BD000D1E90121206801F0DFF82168886840F030
:101BE000770088601DE0CB68D1E90121206801F011
:101BF000D3F82068816841F48041816011E01EE0E3
:101C0000CA684968206801F0D9F85021206806E0C8
:101C1000CA684968206801F0E2F86021206801F094
:101C2000C5F884F83D50002084F83C0070BDCA68B7
:101C30004968206801F0C2F840212068EFE70021E0
:101C40002068ECE710212068E9E720212068E6E71A
:101C500030212068E3E7704770B5044600680169E9
:101C60004FF00005C943890715D4C168C9438907E6
:101C700011D4E91E01610120207720688069800766
:101C8000204602D0FFF7E7FF04E000F098F8204676
:101C900000F096F8257720680169C943490717D4F1
:101CA000C168C943490713D46FF0040101610220E0
:101CB00020772068806910F4407F204602D0FFF72B
:101CC000CAFF04E000F07BF8204600F079F82577A1
:101CD00020680169C943090716D4C168C9430907C7
:101CE00012D46FF008010161042020772068C069D8
:101CF0008007204602D0FFF7AEFF04E000F05FF857
:101D0000204600F05DF8257720680169C943C906BF
:101D100017D4C168C943C90613D46FF0100101611B
:101D2000082020772068C06910F4407F204602D048
:101D3000FFF791FF04E000F042F8204600F040F881
:101D4000257720680169C943C90708D1C168C9431B
:101D5000C90704D1891E0161204600F032F82068CD
:101D60000169C943090609D4C168C943090605D4F4
:101D70006FF0800101612046FFF793FE2068016942
:101D8000C943490609D4C168C943490605D46FF05F
:101D900040010161204600F015F820680169C9433F
:101DA00089060BD4C168C943890607D46FF02001A6
:101DB00001612046BDE87040FFF774BE70BD7047FA
:101DC000704770477047704770B5026804461068E6
:101DD000D168536910F00F0F50D003F0010501F4E2
:101DE000907635435DD0C20705D0CA0503D5E26BB6
:101DF00042F00102E263420705D5DA0703D0E26B45
:101E000042F00202E263820705D5DA0703D0E26BF3
:101E100042F00402E263020705D5DA0703D0E26B61
:101E200042F00802E263E26B002A33D0800604D558
:101E3000880602D5204601F007F820684069E16B6A
:101E4000C0F38010090700D428B3204600F0EEFF4D
:101E50002068416949061AD5416921F04001416174
:101E6000606BA0B11B494163606BFEF705FD002864
:101E700010D0606B416BBDE870400847830610D5F9
:101E80008B060ED52046BDE8704000F0DDBF204631
:101E9000FFF799FF70BD2046FFF795FF0020E06334
:101EA00070BD030606D50B0604D52046BDE870407C
:101EB00001F0CEB84006F3D54806F1D5D1682046EA
:101EC00021F04001D160202184F8391000F005F99B
:101ED00070BD00001D2E000870B5040004D094F8F9
:101EE0003900002510B106E0012070BD84F838509B
:101EF000204600F023F8242084F839002068C168C7
:101F000021F40051C160204600F0EAFF2068016919
:101F100021F4904101612068416921F02A01416169
:101F20002068C16841F40051C160E563202084F855
:101F3000390084F83A00002070BD0000F0B585B08B
:101F4000002400940194029403945C495A4DD0F803
:101F500000C00E15022203235948AC4525D1CD6996
:101F600045F40025CD61CD6905F4002504958D6902
:101F700045F010058D618969054601F01001CDE934
:101F80000331CDE900626946FEF78EFD7000CDE9B0
:101F90000004694628460294FEF786FD00220921C6
:101FA0003420FFF737F934202FE0464D0427AC45A5
:101FB0002FD1CD6945F48015CD61CD6905F480152B
:101FC00004958D6945F010058D618D6905F010054A
:101FD00004958D6945F020058D618969039301F0B1
:101FE00020010491B902CDE900126946FEF75CFDBB
:101FF000CDE90074694634480294FEF755FD00228D
:102000000A213520FFF706F93520FFF7F7F805B06C
:10201000F0BD2E482E4D844525D1886940F480407E
:102020008861886900F480400490886940F0040069
:1020300088618869694600F0040004906815CDE95C
:10204000000203932846FEF72FFDCDE900646946A0
:1020500028460294FEF728FD002206212520FFF7DE
:10206000D9F82520D1E71B488445D0D1C86940F470
:102070000030C861C86900F400300490886940F0FD
:10208000040088618869694600F00400CDE90330E6
:10209000CDE900722846FEF707FD0820CDE90004CF
:1020A000694628460294FEF7FFFC002207212620FD
:1020B000FFF7B0F82620A8E7004C004000100240CF
:1020C0000010014000500040001401400038014061
:1020D000000801400044004070477047704700000E
:1020E00070B5026804461068D168536910F00F0F8C
:1020F00054D003F0010501F49076354368D0C2074F
:1021000005D0CA0503D5226C42F0010222644207C1
:1021100005D5DA0703D0226C42F00202226482075E
:1021200005D5DA0703D0226C42F0040222640207CC
:1021300005D5DA0703D0226C42F008022264226C33
:10214000002A3ED0800608D5880606D594F83D00C2
:10215000222820462FD001F0A9F820684069216C80
:10216000C0F38010090700D460B3204600F0BCFF24
:1021700020684169490621D5416921F0400141614A
:10218000A06BD8B125494163A06BFEF775FB002811
:1021900017D0A06B416BBDE870400847830617D588
:1021A0008B0615D594F83D00222819D12046BDE8AC
:1021B000704000F0A7BF00F0A5FFCEE72046FFF774
:1021C0008DFF70BD2046FFF789FF0020206470BDA1
:1021D00003060FD50B060DD594F83D00122804D048
:1021E0002046BDE8704001F061B82046BDE870406F
:1021F00001F0D0B84006EAD54806E8D5D1682046B7
:1022000021F04001D16021684A6922F001024A614F
:10221000012184F83D1000F06EF870BDD93000083F
:1022200070B5040004D094F83D00002510B106E01C
:10223000012070BD84F83C50204600F01BF80220BD
:1022400084F83D00204600F0B5FF2068016921F4C4
:10225000804101612068416921F02A0141612068C3
:10226000C16841F40051C1602564012084F83D003B
:10227000002070BD30B585B0002400940194029414
:1022800003940068184988422CD11848C16941F468
:102290008021C161C16901F480210491816941F00B
:1022A000080181618069124D00F0080004904FF42C
:1022B000A050009002200190032003906946284618
:1022C000FEF7F2FBE814CDE90004694628460294C3
:1022D000FEF7EAFB002208212720FEF79BFF2720BC
:1022E000FEF78CFF05B030BD0048004000100240F2
:1022F000000C0140704770477047FEE70148FEF749
:10230000D9BC0000AC0000200148FEF73BBD000036
:10231000AC00002010B5406A01680A6822F48062AF
:102320000A6000214185426B5163826B516390F8D2
:102330003D302022602B80F83D2080F83E1007D0F1
:1023400001680A6822F001020A60FEF713FE10BD60
:10235000016401680A6822F001020A60FEF7A8FC25
:1023600010BD000070B590F83D10044600252026F1
:10237000006829292DD02A292BD094F83D106029F6
:1023800004D04168090501D484F83D60256384F8D0
:102390003E50016821F40061016020684168090530
:1023A00037D5416821F400614160606B344990F891
:1023B0002120012A12D04163606BFEF75DFA38B329
:1023C0002068016821F00101016084F83D60606BC4
:1023D0001CE02563282184F83D10DAE7A06B4163F7
:1023E000A06BFEF749FA98B120684169C9434906D4
:1023F00004D40169606A421C62620170206801684D
:1024000021F00101016084F83D60A06B416B8847B9
:102410000FE094F83D1060291DD04169C943490679
:1024200004D40169606A421C626201702046FEF7B2
:10243000A1FD94F83D0028280CD1206C400709D557
:102440001048E062256384F83D6084F83E502046E1
:10245000FEF732FE70BD84F83D6025644169C943D2
:10246000490604D40169606A421C626201702068F6
:10247000016821F0010101602046FEF719FCD8E750
:10248000152300080000FFFF10B5C26A448D2F4BD2
:102490000168032C03D0448D022C15D00AE0042AD5
:1024A00003D0082A01D09A4203D10A6822F480623C
:1024B0000A6001680A69416A4B1C43620A70418DD7
:1024C000491E4185002010BD042A12D0082A10D0D0
:1024D0009A420ED0022A0A6802D022F4806201E0F9
:1024E00042F480620A6001684A6822F440724A60DD
:1024F00008E04A6822F440724A6001680A6842F4BF
:1025000000720A6001680A69416A4B1C43620A70E2
:10251000418D491E418501680A69416A4B1C43622D
:102520000A70418D491E4185202180F83D1000210F
:10253000016390F83E2080F83E10402A02D0FEF75A
:10254000BCFDBFE7FEF7BBFDBCE700000000FFFFDE
:1025500010B590F83D1022294CD1418D032909D99D
:1025600001680A69416A4B1C43620A70418D491E29
:1025700041853FE0022909D0032907D0C16A022919
:1025800001680A6818D022F4806217E0C16A022943
:1025900001680A6807D022F480620A6001680A684C
:1025A00042F4006201E042F480620A60006841681F
:1025B00021F4806141601DE042F480620A6001689C
:1025C0004A6822F4E0624A6001680A69416A4B1C69
:1025D00043620A70418D491E4185202180F83D10DB
:1025E0000021016390F83E2080F83E10402A03D07D
:1025F000FEF763FD002010BDFEF761FDFAE710B5A0
:10260000C26A90F83D10212921D1418D49B1416A1A
:102610004A1C4262026809781161418D491E418558
:1026200015E020230021042A13D0082A11D012F526
:10263000803F0ED00268546824F4E0645460112294
:10264000026380F83E1080F83D30FEF737FD002031
:1026500010BD0268546824F4E06454600268146891
:1026600044F400741460016380F83D3090F83E201B
:1026700080F83E10402AE8D1FEF722FDE7E700008F
:1026800010B590F83D1090F83E30C26A048D24B128
:10269000212934D0402B30D074E02129FAD12023D5
:1026A0000021042A13D0082A11D012F5803F0ED041
:1026B0000268546824F4E06454601122026380F8D4
:1026C0003E1080F83D3000BFFEF7F8FC5AE002688B
:1026D000546824F4E06454600268146844F400749C
:1026E0001460016380F83D3090F83E2080F83E1081
:1026F000402AE9D1FEF7E4FC44E0222942D1418D91
:1027000021B190F83E10402906D032E000684168BF
:1027100021F48061416035E0016D31B1016D012925
:1027200011D0016D022915D02CE0C16C0129816CFA
:1027300002D0C1F3072108E00268C9B21161016D3E
:10274000891C01651EE0816CC9B202681161016DCE
:10275000491CF6E790F83D10222904D090F83D106E
:10276000212906D00EE00068016841F48071016003
:1027700008E0416A4A1C4262026809781161418D91
:10278000491E4185002010BD78B590F83E50C26AC0
:10279000046B90F83D6000230168222E06D1066D7F
:1027A0000EB9402D02D0056D25B107E04869886952
:1027B00000901CE00569B5F5404F1AD0458D85B3F2
:1027C000458D012D20D0428D022A4AD00A6842F45C
:1027D00080620A6001684A68120503D54A6842F4BB
:1027E00080524A6001684A69896900910365002046
:1027F00078BD4A698A6900920A6842F480720A6068
:10280000016D491C0165F2E712F5803F0AD0042AE8
:1028100021D0082A1FD0122C1DD0C26A022A09D149
:1028200014E00BE00A6822F480620A6001684A68DA
:10283000120503D50A6822F480620AE04A698A69AF
:1028400000920A6842F400720A60CFE70A6842F414
:1028500080620A60C6E70A6822F480620A60016842
:10286000ECE7C26A022A0A680BD042F400620A60EE
:1028700001684A698A6900920A6822F480620A60E3
:1028800006E042F480620A6001684A698969009141
:1028900001684A681205A9D54A6842F480524A6024
:1028A000A4E790F83E10402909D00169B1F5804FA6
:1028B00010D0016D99B1016D012915D01CE0016D99
:1028C00019B9416C01F0FE0114E0416CC9B241F04C
:1028D00001010FE090F83D102129F6D1F1E7416C9C
:1028E000F02201F4407103E0416CF12201F44071E7
:1028F00042EAD11100680161002070472DE9F041E2
:1029000090F83D40C26A00231C4F202601686FF4F6
:102910008065042A01D0082A01D1282C05D0212C59
:1029200017D04D610020BDE8F081C7624A6822F4EB
:10293000E0624A6001684D6101680A6822F48062C1
:102940000A60036380F83D6080F83E30FEF7B4FB18
:10295000E8E7C7622122026380F83D6080F83E30DC
:102960004A6822F4E0624A6001684D6101680A68C1
:1029700022F480620A60FEF7E4FBD3E70000FFFF69
:1029800038B590F83D2001684B6823F4E0634B6054
:10299000036800215C6900941C6844F001041C6019
:1029A00003681C6824F480641C6003685C68240568
:1029B0000BD590F83D40222C2BD090F83D402A2C8E
:1029C00027D0446B246864684485448DE4B15C6915
:1029D000E443640707D41C69436A5D1C45621C70AC
:1029E000438D5B1E438503685C69E443640607D43A
:1029F0001C69436A5D1C45621C70438D5B1E4385E8
:102A0000036C43F004030364036C23B1FFF7AAFCD7
:102A10001FE0846BD6E72023282A09D02A2A07D072
:102A2000292A05D0046B222C0CD0222A0AD010E0CF
:102A3000094AC262016380F83D3080F83E10FEF71B
:102A40003BFB06E0016380F83D3080F83E10FEF766
:102A500077FB002038BD00000000FFFF0C480B4949
:102A60004FF4A02201601021416000218160C0E983
:102A700003124FF4C0024261017601224276817650
:102A8000C17601774177FDF717BE00000064004072
:102A9000840000202DE9F04186B000242B480094EA
:102AA000019402940394816941F01001816181696C
:102AB00001F010010491816941F004018161816993
:102AC00001F004010491816941F00801816181698B
:102AD00001F008010491816941F02001816181695F
:102AE00001F020010491816941F040018161806918
:102AF000174F00F0400004900022CE213846FEF728
:102B0000CCF8DFF85080002201214046FEF7C5F8DE
:102B1000CE2001250226CDE90005CDE90246694611
:102B20003846FDF7C1FF03960095CDE9015469468B
:102B30004046FDF7B9FFCDE90054694606480294C6
:102B4000FDF7B2FF06B0BDE8F081000000100240C2
:102B500000100140000C01400018014010B586B083
:102B600000241148009401940294039404944FF0BB
:102B700080410594C0E900144FF47A71C0E9024124
:102B8000802104618161FEF7B6FF4FF48050009010
:102B900069460548FEF7E6FF049404A90248059437
:102BA000FEF781FF06B010BD14010020FEE770475C
:102BB0000907090E002806DA00F00F0000F1E020F6
:102BC00080F8141D704700F1E02080F80014704771
:102BD00070B50446FEF766F805464FF47A7606E0CF
:102BE000FEF760F8401BB04201D9032070BD206899
:102BF00040688006F4D52068416841F010014160CA
:102C0000002070BD70B504460068416821F01001D5
:102C10004160FEF747F805464FF47A7607E000BFBB
:102C2000FEF740F8401BB04201D9032070BD206878
:102C300040688006F4D5002070BD012000F0A0FCA3
:102C4000FBE710B5FEF77EFABDE8104000F0A4BC2B
:102C500070B596B028216846FDF7EBFA14210AA852
:102C6000FDF7E7FA18210FA8FDF7E3FA092001257F
:102C700000904FF48030002404950695CDE90104BE
:102C80000226CDE907604FF4E01009906846FEF790
:102C9000EBFC0F20CDE90A06A802CDE90C40022189
:102CA0000AA80E94FEF7CEFB6802CDE90F500FA8DC
:102CB000FEF752FB16B070BD0D48016841F00101EE
:102CC000016041680B4A1140416001680A4A1140A5
:102CD0000160016821F480210160416821F4FE0156
:102CE00041604FF41F0181600449C00308607047D0
:102CF000001002400000FFF8FFFFF6FE08ED00E0C4
:102D00000148FEF7A9BF000014010020F0B50268D9
:102D10001C4B1D4D1D4E1E4F1E4C4FF0804C9842BB
:102D200009D0A04207D0604505D0A84203D0B042E8
:102D300001D0B84204D122F0700E4A6842EA0E0275
:102D4000984209D0A04207D0604505D0A84203D0E0
:102D5000B04201D0B84203D122F44075CA682A4378
:102D600022F080054A692A4302608A68C2620A68C2
:102D70008262984201D0A04201D109690163012118
:102D80004161F0BD002C01400004004000080040FB
:102D9000000C00400034014010B5846842EA032270
:102DA00024F47F440A432243826010BD826822F0EB
:102DB00070020A4342F007018160704710B5036A50
:102DC000046A24F001040462846924F0F00444EAF3
:102DD000021423F00A020A438461026210BD10B596
:102DE000036A23F0100303628369046A23F47043C7
:102DF00043EA023224F0A00343EA01118261016236
:102E000010BD00000148FEF7DFBF000054010020A4
:102E10000148FEF7D9BF00009401002010B5406AB8
:102E20000021C185C184FEF7CEFF10BD0168CA68CC
:102E300022F49072CA6001684A6922F001024A6174
:102E4000202180F83A10704710B590F83A102229E6
:102E500001D0022010BD8168B1F5805F11D00169F9
:102E6000002901681FD0496801F07F03816A4A1C6C
:102E700082620B70C18D491E0904090CC18518D0EE
:102E80002BE00269816A002A0268526805D0D2B23A
:102E90000A80816A491C8162ECE7C2F308020A8059
:102EA000816A891CF7E74A68816A4B1C83620A7051
:102EB000E0E70168CA6822F02002CA600168CA68B7
:102EC00022F48072CA6001684A6922F001024A61F4
:102ED000202180F83A10FFF7FFF8002010BD000015
:102EE0002DE9F041044600680169E26821F440518F
:102EF000114301612169A0680843616908432168A1
:102F0000CA6841F20C639A430243CA60206841696F
:102F1000A26921F44071114341614C492068642544
:102F2000322688423CD1FEF759FB00EBC00101EB91
:102F3000001061688900B0FBF1F7FEF74FFB00EB72
:102F4000C00101EB00106168B0468900B0FBF1F0F0
:102F5000B0FBF5F06FF01801484307EB800106EB7A
:102F60000110B0FBF5F000F0F006FEF737FB00EBC8
:102F7000C00101EB001061688900B0FBF1F0B0FB0B
:102F8000F5F006EB0016FEF729FB00EBC00101EBA4
:102F9000001061688900B0FBF1F7FEF71FFB3BE012
:102FA000FEF70CFB00EBC00101EB0010616889002B
:102FB000B0FBF1F7FEF702FB00EBC00101EB0010E4
:102FC0006168B0468900B0FBF1F0B0FBF5F06FF03E
:102FD0001801484307EB800106EB0110B0FBF5F048
:102FE00000F0F006FEF7EAFA00EBC00101EB00107A
:102FF00061688900B0FBF1F0B0FBF5F006EB00165C
:10300000FEF7DCFA00EBC00101EB001061688900FB
:10301000B0FBF1F7FEF7D2FA00EBC00101EB0010B4
:1030200061688900B0FBF1F0B0FBF5F06FF01801BA
:10303000484307EB800108EB0110B0FBF5F0216875
:1030400000F00F0030448860BDE8F0810038014096
:1030500090F83910212901D0022070478168B1F51C
:10306000805F016A0BD04A1C0262026809785160D5
:10307000C18C491E0904090CC1840ED017E00988CF
:103080000268C1F30801516001690029016A02D098
:10309000491C0162ECE7891CFBE70168CA6822F061
:1030A0008002CA600068C16841F04001C160002030
:1030B000704700000148FEF787BE0000D4010020E1
:1030C0000148FEF781BE0000140200200148FFF70E
:1030D00007B800005402002010B5406A0021418664
:1030E0004185FEF7FBFF10BD0168CA6822F49072AB
:1030F000CA6001684A6922F001024A61012180F830
:103100003D10704710B590F83D10222901D00220E3
:1031100010BD8168B1F5805F16D001690029016892
:103120002CD0496801F07F03C16A4A1CC2620B704F
:10313000418E491E0904090C418602D0FF21026814
:103140005160418E01B333E00269C16A002A02680E
:1031500052680DD0D2B20A80C16A491CC162418E48
:10316000491E0904090C4186EBD040F2FF11E6E745
:10317000C2F308020A80C16A891CEFE74A68C16A83
:103180004B1CC3620A70D3E70168CA6822F02002B0
:10319000CA600168CA6822F48072CA6001684A691C
:1031A00022F001024A61012180F83D10FFF7A2F8E8
:1031B000002010BD2DE9F04104460068C16821F0EF
:1031C0000C01C160D4E906010843E268216A114399
:1031D000084321680A6922F47C52104340F40060DD
:1031E00008612169A068626908432168CB6841F2DF
:1031F0000C65AB431A431043C8602068416921F451
:10320000407141612849206864254FF032088842A6
:1032100018D1FEF7E3F900EBC00101EB0010616883
:103220004900B0FBF1F0B0FBF5F6FEF7D7F900EB83
:10323000C00101EB001061684900B0FBF1F7FEF737
:10324000CDF917E0FEF7BAF900EBC00101EB001071
:1032500061684900B0FBF1F0B0FBF5F6FEF7AEF99E
:1032600000EBC00101EB001061684900B0FBF1F711
:10327000FEF7A4F900EBC00101EB00106168490002
:10328000B0FBF1F0B0FBF5F06FF01801484307EB2D
:10329000800108EB0110B0FBF5F0216866F31F1008
:1032A0008860BDE8F08100000038014010B590F85A
:1032B0003D10322901D0022010BD418D4FF48053C2
:1032C00019B301680A68D24312061ED482689A4272
:1032D000426A0CD11288C2F308024A6001690029CF
:1032E000416A02D0491C416205E0891CFBE7541C7D
:1032F000446212784A60418D491E4185418D21B951
:103300000168CA6822F08002CA60418E19B3016860
:103310000A68D24392061ED482689A420FD103698A
:10332000C26A49682BB1C9B21180C16A491CC16225
:103330000EE0C1F308011180C16A891CF7E7026938
:1033400062B1496801F07F03C16A4A1CC2620B7016
:10335000418E491E4186418E31B119E04A68C16AE9
:103360004B1CC3620A70F3E70168CA6822F02002AE
:10337000CA600168CA6822F48072CA6001684A693A
:1033800022F001024A61012180F83D10FEF7B4FFEE
:10339000002010BD90F83D10122901D00220704786
:1033A0008168B1F5805F416A0BD04A1C42620268B5
:1033B00009785160418D491E0904090C41850ED0E0
:1033C00017E009880268C1F308015160016900290A
:1033D000416A02D0491C4162ECE7891CFBE70168A5
:1033E000CA6822F08002CA600068C16841F04001EA
:1033F000C1600020704700000148FDF75FB8000081
:10340000840000200148FDF759B800008400002026
:10341000FEE702E008C8121F08C1002AFAD170476F
:103420007047002001E001C1121F002AFBD1704744
:1034300070470020704700008AB0FDF78BFEFFF751
:1034400007FCFFF727FBFFF709FB3F483D49002436
:1034500001603E49C0E901144FF48041C0E90341D5
:1034600044618461C4610462FDF786FD36483849D1
:1034700054300160611E41604FF480718160FEF73D
:1034800075FAFFF76BFB30483249A8304FF4E1354D
:103490000160C0E901540C26C460C0E9044684619F
:1034A000C461FEF719FD28482B49E8300160C0E9E6
:1034B0000154C460C0E904468461C461FEF70CFD98
:1034C000274826490160C0E90154C460C0E90446A8
:1034D0008461C461FEF700FD21482249403001604B
:1034E000C0E90154C460C0E904468461C461FEF7C8
:1034F000F3FC1B481C4980300160C0E90154C460E2
:10350000C0E904468461C4610462FEF789FEFCF7E9
:10351000B1FF142215496846FCF772FE0021684687
:1035200000F044F8124C114914222060143105A80F
:10353000FCF766FE002105A800F038F8606000F096
:1035400026F8FEE700540040AC000020A0860100F1
:1035500000280040004C004000500040003801406E
:10356000D40100200044004000480040944A000874
:103570000000002001460020842900D0C81C7047AC
:1035800010B500B9012000F0ABFC002010BD10B553
:1035900000F05AFD002010BD10B501F0C1F801285F
:1035A00003D0BDE8104000F011BE10BD3EB504468A
:1035B0000D46B0F90800FFF7DDFF02A9CDE90001D3
:1035C000208A2B4682B2D4E9001001F07DF8012850
:1035D00001D000203EBD02983EBD00002DE9F04123
:1035E000184C0F460546E6682068001D00F080FB79
:1035F00038B9206890F82C10012088402169814357
:103600002161681C07D137B12168BDE8F0410E483F
:10361000091D00F0A9BB20683544B542456021680A
:1036200005D2206CBDE8F041091D00F085BBE06BC0
:10363000091D00F081FBA06A854200D2A562BDE8A9
:10364000F081000018000020B40300202DE9F041B3
:10365000054600F095FB2E4CA068401CA060206839
:103660002C4F10B1606940B32DE02560A06801289F
:1036700029D1002606EB860007EB800000F04EFB08
:10368000761C072EF6D323488C3000F047FB2148E8
:10369000A03000F043FB1F48B43000F03FFB1D4852
:1036A000C83000F03BFB1B48DC3000F037FB19480A
:1036B0008C30E0631430206405E02068E96AC06A59
:1036C000884200D82560606A401C60626865E96ACB
:1036D0000120226988401043206101EB810007EB43
:1036E0008000291D00F040FB00F06AFB60690028A3
:1036F0000CD02068E96AC06A884207D206494FF0B8
:1037000080500860BFF34F8FBFF36F8FBDE8F0812B
:1037100018000020D802002004ED00E010B500F0F1
:103720002FFB0E4C2068A0B90D4800F0F7FA0C48AA
:10373000143000F0F3FA0A48E060143020610022EF
:103740000C210A2000F058FD206010B105A100F006
:1037500091FBBDE8104000F033BB00005C0000208E
:10376000C8030020546D72510000000070B5114E66
:10377000114C17E000F0A2FC3068B8B101F0D4F8A9
:1037800000F0FEFAF068C568281D00F0B1FAA068E4
:10379000401EA0606068401E606000F011FB28467B
:1037A00000F055F860680028E4D170BD01F0BCF865
:1037B000F8E70000A00300201800002030B4026CDD
:1037C0000B46002A0BD0C1681144C1604468A14275
:1037D00001D30168C16030BC1846FCF711BD30BC94
:1037E00070472DE9F041856B174604460026026CB0
:1037F00082B1C7B1E068FCF703FDE168206C091AEB
:10380000E1602268914202D26168081AE060022FEA
:1038100016D017E02068A8B9606800F0FFFF0646E0
:10382000002060600EE0A068FCF7EAFC216CA06854
:103830000844A0606168884204D32068A06001E069
:1038400005B16D1E6D1CA5633046BDE8F08110B555
:103850000446006B00F0C8FA2046BDE8104000F0B6
:10386000C3BA0000084C4FF08056084DFFF77EFFAA
:103870002068012804D92E60BFF34F8FBFF36F8FEC
:1038800000F048FAF2E70000D802002004ED00E062
:103890002DE9F0470E46DDE909841746824691007E
:1038A0009946089DA522206BFCF7BCFC6FF0030134
:1038B000206B01EB8701084420F00707780707D049
:1038C000502080F31188BFF34F8FBFF36F8FFEE757
:1038D0002218315C82F83410315C11B1401C202870
:1038E000F6D3002684F85360072D00D30625E56241
:1038F000C4E91756201D00F01CFA04F1180000F06E
:1039000018FA2461C5F107006462A0616666A666C4
:1039100084F86C604A465146384600F0D7F920607A
:10392000B8F1000F01D0C8F80040BDE8F0870000F2
:1039300070B5002441600B4D0061914206D8D11A48
:103940008269914206D2011D286907E09A4203D29A
:10395000994201D3012403E0011DE86800F0ECF96D
:10396000204670BD5C00002010B5044600F008FA47
:10397000A06B28B15FF0000400F022FA204610BDD1
:103980000124F9E730B587B02B4D4BE004980028AF
:1039900048DB069C606910B1201D00F0A9F902A85F
:1039A00000F0B6F8024604980A283BD2DFE800F09F
:1039B0000505053A263705053A260598A169034607
:1039C00001442046FFF7B4FF00B3616A20468847F0
:1039D000E069012826D1002000900598A169002304
:1039E00042181946204601F025F878B9502080F396
:1039F0001188BFF34F8FBFF36F8FFEE70598A0616B
:103A000028B1811813462046FFF792FF0AE05020A4
:103A100080F31188BFF34F8FBFF36F8FFEE720460F
:103A200000F0E2F900231A4604A9286800F00EFC11
:103A30000028ABD107B030BD5C0000202DE9FC416F
:103A40000F46054600F03AFB01A800F061F8044675
:103A5000019818B100F068FFBDE8FC81224EAFB1BB
:103A600030690068A8B30027291B3A46306800F087
:103A700015FA00F059FF0028EED11C494FF0805094
:103A80000860BFF34F8FBFF36F8FE5E7A542EBD818
:103A900000F04AFFF0682746C068C468201D00F0A7
:103AA00027F9E069012810D1A0692B4641193A464F
:103AB0002046FFF73DFF40B100200346014600903D
:103AC0002A46204600F0B6FF20B1616A20468847AA
:103AD000C2E707E0502080F31188BFF34F8FBFF398
:103AE0006F8FFEE70127BFE75C00002004ED00E0D8
:103AF0000648C16B096829B1C16BC968C9684968C2
:103B0000816270474FF0FF31FAE700001800002093
:103B100070B5054600F012FE064E0446B0688442B9
:103B200003D200F009F8012000E0002028602046C0
:103B3000B46070BD5C000020F8B5194D1FE0C0688E
:103B4000C4680668201D00F0D3F8616A20468847E3
:103B5000E069012813D1A0693044B04206D924613C
:103B60006060211DE86800F0E7F808E000200346E7
:103B7000014600903246204600F05CFF38B1E8680C
:103B800001680029DBD12969C5E90310F8BD50207F
:103B900080F31188BFF34F8FBFF36F8FFEE70000F4
:103BA0005C00002008484068401C4FF0500080F343
:103BB000118804D0BFF34F8FBFF36F8FFEE7BFF3C1
:103BC0004F8FBFF36F8FFEE778000020074CE0684F
:103BD000016841B1C0680021D0F80000FFF72EFF56
:103BE000FFF7D0FEF3E701210020F7E75C0000209B
:103BF0002DE9F041044600F0C3F894F9455004F172
:103C0000240609E0606A48B1304600F053FE08B16E
:103C100000F08CF96D1E6DB2002DF3DC4FF0FF3615
:103C200084F8456000F0CCF800F0AAF894F944500C
:103C300004F1100709E0206948B1384600F03AFE67
:103C400008B100F073F96D1E6DB2002DF3DC84F83D
:103C50004460BDE8F04100F0B3B8000070B5044620
:103C60000025400704D004F00700C0F10800044418
:103C700000F024FA0D49486818B90D4820F00700F3
:103C800048600A681019B0F57E6F08D2904206D9D4
:103C90004B6808609D1800F047FE15B103E000F086
:103CA00043FE00F038F8284670BD00007000002088
:103CB000F80300200449086818B10868026E521C15
:103CC00002660868704700001800002010B5031F46
:103CD0004FF080741C601B1F21F001011960191F37
:103CE000024B0B60143940380A6010BDA53B000838
:103CF000D0E9013201699A60D0E901235A604A682B
:103D0000824201D182684A60002202610868401E36
:103D100008607047704770477047704700F10801AE
:103D20004FF0FF32C0E90112C16001610021016062
:103D3000704700210161704730B50B685A1C02D0F2
:103D400000F1080202E0026904E022465468256896
:103D50009D42FAD953684B6099608A60516008614E
:103D60000168491C016030BD42684A6093688B60FD
:103D700093685960916008610168491C016070474F
:103D8000502080F31188BFF34F8FBFF36F8F0A4924
:103D90004868401C486001280CD10848006810F0B1
:103DA000FF0F07D0502080F31188BFF34F8FBFF370
:103DB0006F8FFEE7704700007800002004ED00E000
:103DC0000849486828B1401E486001D180F3118835
:103DD0007047502080F31188BFF34F8FBFF36F8F70
:103DE000FEE7000078000020002807D0502080F374
:103DF0001188BFF34F8FBFF36F8FFEE7704700004E
:103E000006484FF47A710068B0FBF1F14FF0E02002
:103E1000491E416107210161704700001400002024
:103E200010B5FCF7D7F9114910280ED300F1E020A6
:103E300090F8F0030A78904207D2502080F311885E
:103E4000BFF34F8FBFF36F8FFEE7094800688968A3
:103E500000F4E060884207D9502080F31188BFF356
:103E60004F8FBFF36F8FFEE710BD0000780000207A
:103E70000CED00E010B5084B002200BF53F83240B3
:103E80001CB1521C082AF9D310BD43F8321003EBC1
:103E9000C201486010BD00009802002070B51546B0
:103EA0000E460446FFF76CFF94F944100020491CAD
:103EB00001D184F8440094F94510491C01D184F8DB
:103EC0004500FFF77DFFA06B28B92A46314604F173
:103ED000240000F049F82046BDE87040FFF788BE96
:103EE00010B5020014D00F48006B38B1502080F399
:103EF0001188BFF34F8FBFF36F8FFEE700F0DEF83E
:103F000000211046FFF76AFB00F00EFD002807D1E4
:103F100005494FF080500860BFF34F8FBFF36F8F9C
:103F200010BD00001800002004ED00E00149012050
:103F3000C86170471800002010B50C4650B10949FF
:103F400009681831FFF7F8FE2046BDE8104001214E
:103F5000FFF744BB502080F31188BFF34F8FBFF3AE
:103F60006F8FFEE71800002070B514460D4668B14B
:103F70000A4909681831FFF7F7FE0CB14FF0FF3519
:103F800021462846BDE87040FFF728BB502080F34B
:103F90001188BFF34F8FBFF36F8FFEE7180000202B
:103FA00070B5040039D01D4DE06A2968C96A88429D
:103FB00033D2A069002804DB2868C06AC0F107007A
:103FC000A061E16A164E01EB8101606906EB810197
:103FD00088421FD1201DFFF78BFE012150B9E06AF6
:103FE00000EB800256F8222022B92A6901FA00F07B
:103FF00082432A612868C06AE0622A6981401143CD
:10400000296100EB800006EB8000211DBDE87040B7
:10401000FFF7AABE2868C06AE06270BD18000020E1
:10402000D802002028B107490A6A0260C9684160C5
:104030007047502080F31188BFF34F8FBFF36F8F0D
:10404000FEE70000180000201CB518480024CDE948
:1040500000402346802216A1174800F035FB0128B6
:1040600003D100F0C3FC012809D0401C1CD1502012
:1040700080F31188BFF34F8FBFF36F8FFEE750209F
:1040800080F31188BFF34F8FBFF36F8F07484FF056
:10409000FF312C38816201214161C460FFF7C8F90A
:1040A000BDE81C4000F058B81CBD000044000020D2
:1040B00049444C4500000000653800080248016B87
:1040C000491C0163704700001800002010B5204C07
:1040D000206B10B10120E06110BD0020E061FFF70E
:1040E000A8F9A063626B904204D92168821A4B6ED2
:1040F0001A444A666063206821680068096B884238
:1041000004D8216820683431FFF706FE2069114980
:10411000B0FA80F0C0F11F0000EB800051F82020C1
:104120006AB101EB800000F1080241684968416012
:10413000914201D149684160C868206010BD50209B
:1041400080F31188BFF34F8FBFF36F8FFEE700003E
:1041500018000020D80200201CB5194908780190E9
:10416000FF20087008788DF800009DF80000154ABF
:1041700000F0500010700720906005E09DF80030BE
:104180005B008DF80030401E9DF800301B06F5D412
:10419000000200F4E0609060019808700A4801682D
:1041A00041F470010160016841F070410160FFF766
:1041B00027FE00205060FBF7D7FF00201CBD000049
:1041C00000E400E07800002020ED00E010B5502071
:1041D00080F31188BFF34F8FBFF36F8F00F0B4FAF5
:1041E00018B104494FF080500860002080F3118816
:1041F00010BD000004ED00E02DE9F04117460E4629
:10420000050016D0EEB105FB06F05030FFF726FD95
:1042100004000CD004F15000AEB12060C4E90F5688
:104220002046012100F0C8F8204684F84C70BDE813
:10423000F081502080F31188BFF34F8FBFF36F8F51
:10424000FEE70020E1E72460E8E700002DE9FF4FEA
:10425000002683B09B468A46040003D0BAF1000FC3
:1042600008D011E0502080F31188BFF34F8FBFF3C7
:104270006F8FFEE7206C38B1502080F31188BFF3B8
:104280004F8FBFF36F8FFEE700F04AFADFF824810B
:104290004FF000094FF0805748B9059838B15020C9
:1042A00080F31188BFF34F8FBFF36F8FFEE7FFF7E7
:1042B00067FDA56B45B351462046E668FFF77EFAD9
:1042C000BBF1000F13D0E660606A50B104F1240026
:1042D00000F0F0FA28B1C8F80070BFF34F8FBFF3B9
:1042E0006F8FFFF76DFD012007B0BDE8F08F6D1EE9
:1042F000A563206810B9FFF7DDFC60602069002825
:10430000EFD004F11000E3E7059808B11EB106E014
:10431000FFF756FD27E06846FFF784FE0126FFF70A
:104320004FFDFFF7CBFEFFF72BFD94F94400401C37
:1043300001D184F8449094F94500401C01D184F8DF
:104340004590FFF73DFD05A9684600F087F9002874
:1043500020460AD0FFF74CFC00F0E6FA2046FFF7B3
:1043600003FB0028A3D00020BEE7FFF7FDFAD8B179
:10437000206830B9FFF704FD6068FFF711FEFFF712
:104380001FFD04F124000599FFF7D6FD2046FFF735
:104390002FFC00F0C9FA002889D1C8F80070BFF3DB
:1043A0004F8FBFF36F8F82E72046FFF721FC00F0AD
:1043B000BBFA7CE704ED00E070B50D46040025D0A3
:1043C000FFF7DEFCD4E90F20216802FB00116160D9
:1043D0000021A1632168A1600A46D4E90F01401EB3
:1043E00000FB0121E16021464FF0FF3001F8440F4E
:1043F000487004F110008DB1FFF790FC04F1240027
:10440000FFF78CFCFFF7DCFC012070BD502080F32F
:104410001188BFF34F8FBFF36F8FFEE7216900292B
:10442000F0D000F047FA0028ECD004494FF080505B
:104430000860BFF34F8FBFF36F8FE3E704ED00E039
:104440002DE9FF4782B01D468A464FF00008040060
:1044500003D0BAF1000F08D011E0502080F311888A
:10446000BFF34F8FBFF36F8FFEE7206C38B1502042
:1044700080F31188BFF34F8FBFF36F8FFEE7022DDC
:104480000AD1E06B012807D0502080F31188BFF3D8
:104490004F8FBFF36F8FFEE700F042F93F4F4FF0B1
:1044A00000094FF0805648B9049838B1502080F385
:1044B0001188BFF34F8FBFF36F8FFEE7FFF760FCEC
:1044C000A06BE16B884207D3022D05D00498D0B1D0
:1044D000B8F1000F1AD01EE02A4651462046FFF7D9
:1044E00080F9616A19B104F1240000F0E3F920B108
:1044F0003E60BFF34F8FBFF36F8FFFF761FC01206A
:1045000006B0BDE8F087FFF75BFC22E06846FFF7E6
:1045100089FD4FF00108FFF753FCFFF7CFFDFFF7D0
:104520002FFC94F94400401C01D184F8449094F984
:104530004500401C01D184F84590FFF741FC04A9D7
:10454000684600F08BF830B12046FFF751FB00F0D1
:10455000EBF90020D4E7FFF713FCA06BE16B884276
:1045600013D1FFF72DFC04F110000499FFF7E4FCD0
:104570002046FFF73DFB00F0D7F900289ED13E60B2
:10458000BFF34F8FBFF36F8F98E7FFF719FC2046FB
:10459000FFF72EFB00F0C8F990E7000004ED00E003
:1045A0002DE9F0471F4690468946040003D0B9F133
:1045B000000F08D011E0502080F31188BFF34F8F17
:1045C000BFF36F8FFEE7206C38B1502080F3118865
:1045D000BFF34F8FBFF36F8FFEE7022F0AD1E06B5F
:1045E000012807D0502080F31188BFF34F8FBFF30D
:1045F0006F8FFEE7FFF714FC5020EFF3118680F376
:104600001188BFF34F8FBFF36F8FA06BE16B8842B0
:1046100006D3022F04D0002086F31188BDE8F0876E
:1046200094F945503A4649462046FFF7DAF8681CA7
:1046300004D06D1C84F845500120EDE7606A002825
:10464000FAD004F1240000F035F90028F4D0B8F1D4
:10465000000FF1D00121C8F80010EDE770B50D464C
:10466000040019D005B3FFF78BFB164AD168286800
:10467000431C0FD02368126A934202D062688A42B8
:104680001AD96268891A814216D2401A28602046D7
:10469000FFF7C8FC002410E0502080F31188BFF31E
:1046A0004F8FBFF36F8FFEE7502080F31188BFF369
:1046B0004F8FBFF36F8FFEE70124FFF781FB20468A
:1046C00070BD0000180000202DE9FF5F8346DDE982
:1046D0000E87994616468A469000FFF7BFFA0500F6
:1046E0001AD07020FFF7BAFA040012D02563002117
:1046F000CDE90241CDE900874B4632465146584646
:10470000FFF7C6F82046FEF7A1FF012004B0BDE880
:10471000F09F2846FFF768FB4FF0FF30F6E70000F8
:104720000548416919B1006B18B10020704701209C
:104730007047022070470000180000200148C06840
:1047400070470000180000202DE9F041314C00278F
:10475000206B18B1A069401CA06152E0E668761C8D
:10476000E66013D1E06B006838B1502080F3118807
:10477000BFF34F8FBFF36F8FFEE7E06B216CE163F8
:104780002064206A401C2062FFF7B2F9A06ADFF8BB
:104790008880864209D3E06B006890B1E06BC06806
:1047A000C568686886420FD2A0622068C06A00EBC4
:1047B000800158F82100012800D90127A06900B321
:1047C00021E04FF0FF30EFE7281DFFF791FAA86ACC
:1047D00018B105F11800FFF78BFAE86A0121226988
:1047E00081401143216100EB800108EB8100291D0C
:1047F000FFF7BAFAE86A2168C96A8842CBD3012771
:10480000C9E7FFF78AFAE06900B101273846BDE839
:10481000F081000018000020D802002070B50400CC
:104820004FF0000140D0214D2868844207D050202D
:1048300080F31188BFF34F8FBFF36F8FFEE7206EB9
:1048400038B1401E2066E36DE26A9A422CD040B136
:104850002AE0502080F31188BFF34F8FBFF36F8F92
:10486000FEE7201DFFF744FA114A012150B9E06A22
:1048700000EB800352F8233023B92B6901FA00F0D2
:1048800083432B61E06DE062C0F10700A061E06A44
:104890002B6981401943296100EB800002EB800005
:1048A000211DFFF761FA0121084670BD18000020A4
:1048B000D80200202DE9F041C068C468ACB104F111
:1048C00018000746FFF714FA154D286B0126A0B112
:1048D00039461448FFF748FAE06A2968C96A8842ED
:1048E0001CD90120EE61BDE8F081502080F31188D1
:1048F000BFF34F8FBFF36F8FFEE7201DFFF7F8F96F
:10490000E16A2A6906FA01F01043286101EB81008F
:104910000449B43901EB8000211DDBE70020E2E708
:10492000180000208C0300202DE9F0472C4D0024B6
:104930002746286B38B1FFF723FA286B401E2863FF
:10494000286B40B146E0502080F31188BFF34F8FB1
:10495000BFF36F8FFEE7A968224E0120D1B3A6F105
:10496000B40980463068E8B1F068C46804F1180002
:10497000FFF7BEF9201DFFF7BBF9E06A2A6908FAC4
:1049800000F11143296100EB800109EB8100211D39
:10499000FFF7EAF9E06A2968C96A8842E2D3C5F8F4
:1049A0001C80DFE70CB1FFF7A3F8AC6944B14646C1
:1049B000FFF7CAFE00B1EE61641EF9D10020A861C4
:1049C000E86938B10849012738070860BFF34F8FFD
:1049D000BFF36F8FFFF7F4F93846BDE8F0870000AA
:1049E000180000208C03002004ED00E01CB5FEF749
:1049F00095FE0C48006860B10A490220091DCDE906
:104A00000001C201002308A10948FFF75DFE00284C
:104A100007D1502080F31188BFF34F8FBFF36F8F02
:104A2000FEE71CBD5C000020546D722053766300CD
:104A3000CD3B0008FEB51E4613460200089D4FF010
:104A4000000014D0124C2768002F0FD0CDE90013BE
:104A50000292062915DAFFF763FE02284FF00003E1
:104A60000DD0002269462068FFF7EAFCFEBD502009
:104A700080F31188BFF34F8FBFF36F8FFEE72A4695
:104A8000F0E70023324669463846FFF789FDFEBD50
:104A90005C000020E04A00083B2C000800000000F9
:104AA0000000000080000000D44A00083303000822
:104AB0000100000000000000800000000000000075
:104AC00000000000010203040607080900000000BE
:104AD0000102030444485431315F5461736B000098
:104AE00064656661756C745461736B000C4B0008EF
:104AF000000000208400000012340008904B0008E1
:104B00008400002054170000223400080000000038
:104B10000000000001000000100000000000000084
:104B200000A24A0400000000000000000000000095
:104B30000000000000000000000000000000000075
:104B40000000000000000000000000000000000065
:104B50000000000000000000000000000000000055
:104B60000000000000000000000000000000000045
:104B70000000000000000000000000000000000035
:104B80000000000000000000AAAAAAAA000000007D
:0400000508000131BD
:00000001FF
